:040000000201BB320C
:01000B0032C2
:0100130032BA
:01001B0032B2
:0100230032AA
:01002B0032A2
:01003300329A
:01003B003292
:01004300328A
:01004B003282
:01005300327A
:01005B003272
:01006300326A
:03006B000206A4E6
:030073000206BCC6
:03007B000207A2D7
:03008300020F6405
:03008B0002070960
:030093000207540D
:03009B0002079FBA
:0300A300020F8EBB
:0300AB00020F8FB2
:0300B300020F90A9
:0300BB00020F939E
:0300C300020F66C3
:0300CB00020F80A1
:0300D300020F8198
:0300DB00020F838E
:0300E300020B8F7E
:0300EB0002176495
:0300F3000207A061
:0300FB000207A158
:03010300020B8E5E
:03010B00020B9054
:03011300020B914B
:03011B000216C108
:03012300020F8C3C
:03012B00020F912F
:03013300020F9424
:03013B00020F961A
:03014300020F8D1B
:03014B00020F920E
:03015300020F9503
:03015B00020F97F9
:030163000210EE99
:03016B00020F84FC
:03017300020F86F2
:03017B00020F88E8
:03018300020F8ADE
:03018B00020F85DB
:03019300020F87D1
:03019B00020F89C7
:0301A300020F8BBD
:0301AB00020F82BE
:0301B300020F65D3
:030226000201B61C
:0501B6001202D780FEDB
:07022900858231753500AC40
:030230002AAD2BC9
:0A023300AE357F00C3EE952CEF9569
:04023D002D4001222D
:07024100E535252EFEE43532
:0A0248002FFFAA308E828F838AF008
:0C0252001216DAFE7A00AF357B00C00403
:0E025E00C005C006C002C004C005C007C00332
:0A026C0074CEC0E07417C0E0748087
:0E027600C0E0121113E58124F7F581D005D008
:0A028400048D028A328C028A33AA2C
:05028E00350535EA25ED
:070293002EFAE4352FFBAE4B
:0C029A00308A828B838EF01216DAFA8A0A
:0302A60034753C70
:0502A90032753D0075F7
:0702AE003E40753A03E4F540
:0502B5003BE4F53FF5FC
:0402BA0040F541F5D5
:0402BE0042F543853D
:0C02C2003182C004C0051207A3D005D093
:0602CE00040CBC00010D50
:0302D400020233F0
:0B02D700C29090E60BE4F0E4F526F581
:0402E20027F528F5DF
:0402E60029C20175B3
:0602EA002500C200E4F54E
:0A02F00023F52490E680E0440AF0B4
:0E02FA009005DC12109890E680E054F7F0902A
:0E030800E600E0FA74E75A90E600F5F0741093
:0C03160045F0F090E100120F98E500D2D5
:0E032200E890E668E04408F090E65CE04401F4
:0E033000F090E65CE04402F090E65CE04420D1
:0E033E00F090E65CE0FA4410F090E61274A233
:0E034C00F00000000090E61474E2F0000000E3
:0E035A000090E611E0FA547FF00000000090E1
:0E036800E610E0FA547FF00000000090E6136B
:0E037600E0FA547FF00000000090E615E0FA77
:0E038400547FF00000000090E6917480F000BD
:0E03920000000090E6917480F0D2AF43B301FA
:0603A000C290752E677586
:0403A6002F3CE4F50F
:0403AA0030F52AF50B
:0603AE002B752C08E4F59C
:0703B4002D75825112022990
:0803BB0030011A74DCC0E0748B
:0C03C30017C0E07480C0E0121113158117
:0903CF0015811581120B92C20187
:0E03D800E5AA20E052E5AA20E54D90E690E06F
:0C03E600FB7A0090E691E0FC7D004AF5F7
:0903F20023ED4BF5247A007B0099
:0A03FB00C3EA9523EB9524502B8AEA
:0C0405008274F82BF583E4F090E698E593
:0904110024F000000000AC23E51A
:0C041A00247D0090E699ECF090E69174CF
:0904260080F00ABA00CF0B80CC73
:05042F001090028002A4
:020434008085C1
:05043600D2900203BB9F
:0E043B00AA8290E6BBE0FC7B0090E6BAE07E71
:0E044900004203EE420490E6BFE0FE7D00900C
:0E045700E6BEE0FF78004205E84206BAB002B9
:0204650080080D
:05046700BAB102802F74
:03046C00020590F6
:0E046F0090E6BAE0F582120CAFAF82A883EFE0
:06047D004870030205AF08
:0E0483008F828883E090E740F090E68AE4F0F4
:0A04910090E68B7401F075820122E1
:0A049B0090E6B8E0FFBF4002807455
:0504A500BFC00280034E
:0304AA00020573D5
:0704AD00ED4E70030205771C
:0E04B400C374409DE49E50067F407800800493
:0404C2008D078E0014
:0B04C60090E6A0E0F820E1F88F5D75E3
:0604D1005E00755F40753E
:0604D70060E77561008B77
:0A04DD005B8C5C758251C003C00403
:0E04E700C005C006C007120B29D007D006D0F2
:0E04F50005D004D00390E68AE4F00000000079
:0E05030090E68BEFF07800EDC39FFDEE98FEC2
:08051100EF2BFBE83CFC809499
:09051900ED4E605A90E68BE4F00F
:0E05220090E6A0E0FF20E1F890E68BE0FF8F6E
:0505300050755100753B
:0605350052407553E7750A
:05053B0054008B4E8C02
:0C0540004F758251C003C004C005C00606
:0E054C00C007120A93E582D007D006D005D072
:08055A0004D0037003F58222B6
:0E0562007800EF2BFBE83CFCEDC39FFDEE980C
:03057000FE80A664
:04057300758200226B
:0A05770074EEC0E07417C0E0748059
:0E058100C0E0121113158115811581758201DC
:01058F002249
:0B0590007B00C002C00374F6C0E074E2
:0C059B0017C0E07480C0E0121113E5816D
:0805A70024FBF581758200229E
:0405AF00758200222F
:0A05B300AA82C002741EC0E0741892
:0E05BD00C0E07480C0E0121113158115811585
:0A05CB0081D002EA7014AA36AB37A3
:0C05D500AC388A828B838CF0E4120F6734
:0405E10075820122FC
:0405E50075820022F9
:0C05E900AA82AB397C008A057E00C002AB
:0C05F500C003C004C005C006742DC0E0A7
:0C0601007418C0E07480C0E0121113E512
:0D060D008124F9F581D002EA600302068E17
:0C061A00E539707090E6837402F0E0FA9D
:0E06260090E68374204AF090E6837416F0E0AC
:0E063400FA90E68374204AF090E6047480F099
:0E0642000000000090E6047402F000000000CA
:0E06500090E604E4F00000000090E691748053
:0E065E00F00000000090E6917480F0000000B3
:0E066C000090E6047480F00000000090E604A8
:0E067A007486F00000000090E604E4F000003A
:0606880000007582012252
:04068E00758200224F
:04069200758201224A
:09069600AA82BA01047A01800273
:02069F007A00DF
:0306A1008A822228
:0C06A400C0E0C082C083D2015391EF90EF
:0C06B000E65D7401F0D083D082D0E0320F
:0E06BC00C0E0C082C083C0D075D008903C65FD
:0E06CA00E02401F0A3E03400F0903C65E0FA7B
:0C06D800A3E0FBBA4019BB1F16B20330B0
:0806E40003067592B8E28004E0
:0406EC007592B0E271
:0706F000903C65E4F0A3F06B
:0E06F7005391EF90E65D7402F0D0D0D083D026
:0407050082D0E0328C
:0C070900C022C0E0C0F0C082C083C0026B
:0E071500C003C004C005C006C007C000C0017C
:0E072300C0D075D000758200120E685391EFA1
:0E07310090E65D7410F0D0D0D001D000D0075B
:0E073F00D006D005D004D003D002D083D082E3
:07074D00D0F0D0E0D0223211
:0C075400C022C0E0C0F0C082C083C00220
:0E076000C003C004C005C006C007C000C00131
:0E076E00C0D075D000758201120E685391EF55
:0E077C0090E65D7420F0D0D0D001D000D00700
:0E078A00D006D005D004D003D002D083D08298
:07079800D0F0D0E0D02232C6
:0E17CE00256420253034783A253032780A0020
:0E17DC0048616E646C6520736574757064619D
:0417EA0074610A001C
:0817EE00416C6C204F4B0A0016
:0E17F6004E65656420746F20696D706C656DC2
:0E180400656E742076656E646F7220636F6D82
:0C1812006D616E643A20253032780A00C7
:0E181E0047657420496E746572666163650AE1
:01182C0000BB
:0E182D0053657420696E746572666163652090
:0E183B00256420746F20616C743A2025640AC5
:01184900009E
:02185500000091
:08185700C04324DC0000000086
:0E3E000012010002FFFFFF404324DC0001001E
:043E0E0001020001AC
:0A3E12000A060002FFFFFF40010056
:093E1C00090220000101008032BE
:0E3E25000904000002FFFFFF03070502020070
:093E3300020007058602000200EE
:093E3C000902200001010080329E
:0E3E45000904000002FFFFFF03070502024010
:093E530000000705860240000092
:043E5C00040309044E
:0E3E60003203610065007300730065006E00A0
:0E3E6E007400200054006500630068006E00C0
:0E3E7C006F006C006F006700790020004C00A2
:083E8A00740064002E0020000A
:0E3E9200100361006500730032003200300042
:023EA000200000
:0C3EA2000C03690046006100630065002D
:023EAE00000012
:01079F003227
:0107A0003226
:0107A1003225
:0107A2003224
:0707A300AA82E53F253AF5AB
:0407AA0044E54035AD
:0407AE003BF5459042
:0A07B2003C64E4F0EA2AFA754602FE
:0B07BC00903C64E0FE600475820022A7
:0E07C70090E678E04480F090E678E0FE30E2C4
:0D07D5000C90000AC002121098D00280DAC9
:0507E20090E679EAF049
:0E07E70090E678E0FE20E007903C64E0FE60C3
:0107F500F112
:0B07F600903C64E0FE6004758200226D
:0E08010090E678E0FE20E2B390E678E0FE207C
:0A080F00E13690E678E0FE4440F088
:0E08190090E678E0FE30E607903C64E0FE607A
:01082700F1DF
:0B082800903C64E0FE6004758200223A
:07083300D546047582002286
:0D083A0090000AC002121098D0020207BC04
:040847007E007F00B0
:0A084B00C3EE9544EF95454003020B
:0208550008E8B1
:0A085700C3EE953AEF953B5016EE04
:08086100253CF8EF353DF9AD2F
:0C0869003E888289838DF01216DAFD8033
:010875001D65
:0A087600EEC3953AF8EF953BF9E860
:080880002541F8E93542F9AB0E
:0B08880043888289838BF01216DAFD92
:0A08930090E679EDF00EBE00010FB3
:0E089D0090E678E0FB20E007903C64E0FB6012
:0108AB00F15B
:0B08AC00903C64E0FB600475820022B9
:0B08B70090E678E0FB30E2030207BC93
:0B08C20090E678E0FB30E10302084BF9
:0808CD0090E678E0FA4440F0E7
:0E08D50090E678E0FA30E607903C64E0FA60C6
:0108E300F123
:0408E40075820022F7
:0808E80090E678E0FA4440F0CC
:0E08F00090E678E0FA30E607903C64E0FA60AB
:0108FE00F108
:0B08FF00903C64E0FA60047582002267
:04090A0075820122CF
:0E090E00AA82903C64E4F0EA2AFA43020174E3
:0A091C0001B54708E4B54804740172
:0209260080014E
:01092800E4EA
:01092900FBD2
:0B092A00903C64E0FC60047582002239
:0E0935007C007D0090E678E04480F090E6784B
:0D094300E0FE30E21090000AC002C0031276
:080950001098D003D00280D200
:0509580090E679EAF0D1
:0E095D0090E678E0FE20E007903C64E0FE604B
:01096B00F19A
:0B096C00903C64E0FE600475820022F5
:0E09770090E678E0FE20E2AB90E678E0FE200D
:0A098500E11B90E678E0FE4440F02C
:0E098F0090E678E0FE30E607903C64E0FE6003
:01099D00F168
:04099E00758200223C
:0B09A200EB600890E678E0FE4420F0D7
:0909AD0090E679E0E4F54CF54D0B
:0A09B6007401254CF8E4354DF9C337
:0809C000E89547E995485069EC
:0E09C80090E678E0F820E007903C64E0F860EC
:0109D600F12F
:0B09D700903C64E0F860047582002290
:0B09E20090E678E0F830E20302092AFA
:0A09ED007402254CF8E4354DF9E8DA
:0A09F700B5470CE9B5480890E67812
:050A0100E0F84420F0C4
:050A0600A84CA94D05FC
:060A0B004CE4B54C0205AD
:010A11004D97
:060A1200AC4CAD4DE825DF
:070A180049F8E9354AF9AE87
:0C0A1F004B90E679E0FF888289838EF01E
:060A2B00120F670209B67C
:0E0A310090E678E0FE20E007903C64E0FE6076
:010A3F00F1C5
:0B0A4000903C64E0FE60047582002220
:0B0A4B0090E678E0FE30E20302092A8A
:0C0A560090E678E04440F0EC2549FCED0F
:0A0A6200354AFDAA4B90E679E0FB4F
:090A6C008C828D838AF0120F6761
:0E0A750090E678E0FA30E607903C64E0FA6024
:010A8300F181
:0B0A8400903C64E0FA600475820022E0
:040A8F007582012249
:070A9300858255E4F559F5D9
:040A9A005AAD4EAE55
:010A9E004F08
:060A9F00C3E5599550E586
:060AA5005A9551400302C6
:020AAB000B2519
:0E0AAD007F0090E678E0FA30E4067F018E02CA
:020ABB008A5659
:0C0ABD008F020FEA2456F88D02A6028F6B
:090AC900020FEA2456F8AA59AB09
:050AD2005A0559E4B5CE
:040AD7005902055A61
:090ADB00EA2552FAEB3553FBAC9D
:0C0AE400548A828B838CF01216DAF68F95
:050AF0003A753B0075A2
:030AF5003C5675F7
:070AF8003D00753E40E4F5EE
:040AFF003FF540F58A
:040B030041F542F581
:090B070043855582C005C00612A9
:0D0B100007A3E582D006D0057003F5822210
:050B1D000DBD00010EFA
:030B2200020A9F25
:040B250075820122B2
:0E0B2900AA827B0090E678E0FC30E4067B01B7
:040B3700AC5C8C62C4
:0A0B3B008B040BEC2462F8AC5BA6FF
:070B4500048B3A753B0075BB
:030B4C003C627593
:070B4F003D00753E40E4F596
:040B56003FF540F532
:040B5A0041F542F52A
:0C0B5E00438A82C0021207A3E582D00285
:050B6A007003F582227A
:040B6F00855D4785D4
:030B73005E488554
:030B76005F49854F
:030B7900604A854A
:050B7C00614B8A8212AA
:090B8100090EE5827003F58222E1
:040B8A00758201224D
:010B8E003234
:010B8F003233
:010B90003232
:010B91003231
:0601EA00E478FFF6D8FDE9
:0801C800790AE94400601B7A8A
:0501D0000190185578B4
:0301D500657592BB
:0A01D8003CE493F2A308B80002050E
:0801E20092D9F4DAF27592FFE4
:070214007511007512007561
:03021B00133C751C
:03021E00143E7516
:03022100151C7534
:02022400163E84
:0C0B920090E6B9E0FA24F45003020C9243
:070B9E00EA2A2A900BA5735F
:070BA500020BC9020BDE0286
:060BAC000C92020BF302A3
:060BB2000C92020C9202FD
:060BB8000C08020C920281
:060BBE000C0E020C2602E1
:050BC4000C40020C745E
:0A0BC900120D06E5826003020CA77E
:0B0BD30090E6A0E0FA4401F0020CA73D
:0A0BDE00120D92E5826003020CA7DD
:0B0BE80090E6A0E0FA4401F0020CA728
:0A0BF300120DE0E5826003020CA77A
:0B0BFD0090E6A0E0FA4401F0020CA713
:060C0800120E93020CA77E
:0E0C0E00120692AA8290E740EAF090E68AE48D
:0A0C1C00F090E68B7401F0020CA7C3
:0E0C260090E6BAE0F582120696E582600302BF
:020C34000CA70B
:0A0C360090E6A0E0FA4401F08067A8
:090C400090E6BCE0FA753610756F
:080C490037007538408A821261
:0E0C510005B3E582700A90E6A0E0FA4401F0D7
:020C5F008046CD
:0C0C610090E740E510F090E68AE4F09087
:070C6D00E68B7401F08033F7
:0C0C740090E6BCE0FA90E6BAE0F5398AA0
:0E0C8000821205E9E582701F90E6A0E0FA44BA
:040C8E0001F08015DC
:0E0C920090E6B9E0F58212043BE5827008900E
:070CA000E6A0E0FA4401F0B8
:080CA70090E6A0E04480F02279
:0E0CAF00AA82747F5AFB24F74049EB2B2B904E
:030CBD000CC073F5
:070CC000020CDB020CDF0255
:060CC7000CF2020D020216
:060CCD000CF6020D02020C
:060CD3000CFA020D020202
:020CD9000CFE0F
:040CDB0090E6A022DD
:0A0CDF00EA30E7067AA27BE6800403
:040CE9007AA17BE68B
:050CED008A828B8322C6
:040CF20090E6A322C3
:040CF60090E6A422BE
:040CFA0090E6A522B9
:040CFE0090E6A622B4
:040D0200900000223B
:0A0D060090E6B8E0FABA80028022FD
:050D1000BA8102800819
:050D1500BA82028037E4
:030D1A00020D8A3D
:0E0D1D0090E740E4F090E741F090E68AF09015
:070D2B00E68B7402F0805C0E
:0A0D3200E51225E0FAE511420290F7
:0E0D3C00E740EAF090E741E4F090E68AF0909C
:070D4A00E68B7402F0803D0E
:0E0D510090E6BCE0F582120CAFAA82AB83EAFA
:060D5F004B7003F5822237
:0D0D65008A828B83E0FA30E0047A0180027C
:020D72007A0005
:0E0D740090E740EAF090E741E4F090E68AF064
:080D820090E68B7402F080047E
:040D8A00758200224C
:040D8E007582012247
:0C0D920090E6B8E0FA6005BA0237801164
:0C0D9E0090E6BAE0FABA01057512008078
:010DAA003117
:040DAB00758200222B
:0D0DAF0090E6BAE0701A90E6BCE0F5821202
:0E0DBC000CAFAA82AB83E0FC5304FE8A828B4C
:050DCA0083ECF0800D38
:040DCF007582002207
:090DD30090E6B9E0F58202043B50
:040DDC0075820122F9
:0C0DE00090E6B8E0FA6008BA0202801F3A
:030DEC00020E5B99
:0B0DEF0090E6BAE0FABA0203020E64BC
:0C0DFA0090E6BAE0FABA0105751201801B
:010E06005D8E
:040E070075820022CE
:0D0E0B0090E6BAE0704690E6BCE0F5821279
:0D0E18000CAFAA82AB83EA4B7003F5822277
:0E0E25008A828B83E0FC4304018A828B83EC7B
:0E0E3300F090E6BCE0FA53020F90E6BCE054EB
:0D0E410080C423541FFB90E683EB2AF09041
:090E4E00E683E0FA4420F0800D77
:040E5700758200227E
:090E5B0090E6B9E0F58202043BC7
:040E64007582012270
:090E6800AA82D20410AF02C204F8
:070E7100EA600E75131C7509
:030E7800143E75B0
:030E7B00153C75AE
:040E7E00163E800C90
:040E820075133C7533
:030E8600143E75A2
:030E8900151C75C0
:020E8C00163E10
:050E8E00A20492AF2256
:0A0E930090E6BBE0FABA01028019F4
:050E9D00BA02028027EB
:050EA200BA03028030DC
:060EA700BA0603020F3B36
:060EAD00BA0703020F4E1C
:030EB300020F5CCF
:0A0EB6007A007B3E90E6B3EBF07A81
:090EC000007B3E90E6B4EAF0224A
:090EC90090E6B3E514F0AA1390C1
:050ED200E6B4EAF02285
:0A0ED7007A5C7B3E7C8090E6BAE076
:030EE100FD7E0093
:090EE4008E070EEDB50702803601
:0E0EED008A828B838CF01216DA2AFAE43BFB21
:0E0EFB0074012AFFE43BF88C018F8288838902
:0A0F0900F01216DAFFBF03028006A3
:060F13007A007B007C0067
:0A0F1900EA4B4C6005C3ED9E50C189
:0E0F2300EA4B4C600B90E6B3EBF090E6B4EABC
:020F3100F022AC
:080F330090E6A0E04401F02269
:0A0F3B007A127B3E90E6B3EBF07AE9
:090F4500127B3E90E6B4EAF022B2
:090F4E0090E6B3E516F0AA159037
:050F5700E6B4EAF022FF
:080F5C0090E6A0E04401F02240
:010F6400325A
:010F65003259
:010F66003258
:0E0F670020F71030F6118883A88220F507F6D7
:050F7500A88375830054
:010F7A002254
:030F7B00F280F70A
:020F7E00F0225F
:010F8000323E
:010F8100323D
:010F8200323C
:010F8300323B
:03004300023F0079
:093F00000206A4000206BC000246
:083F090007A200020F64000290
:083F1100070900020754000239
:083F1900079F00020F8D00025A
:083F21000F8E00020F8F000259
:083F29000F9000020F9300024B
:083F31000F6600020F80000280
:083F39000F8100020F8300025A
:083F41000B8F00020F8D00023E
:083F49001764000207A000024A
:083F510007A100020B8E000223
:083F59000B9000020B91000225
:083F610016C100020F8D0002E1
:083F69000F8D00020F8D000214
:083F71000F8C00020F91000209
:083F79000F9400020F960002F4
:083F81000F9200020F950002EF
:083F89000F97000210EE000288
:083F91000F8400020F860002FC
:083F99000F8800020F8A0002EC
:083FA1000F8500020F870002EA
:083FA9000F8900020F8B0002DA
:073FB1000F8200020F650002
:010F8400323A
:0801F0007800E84400600A7980
:0301F800007592FD
:0601FB003CE4F309D8FC0E
:080201007865E84400600C7907
:0B02090001903C00E4F0A3D8FCD9FAFF
:010F85003239
:010F86003238
:010F87003237
:010F88003236
:010F89003235
:010F8A003234
:010F8B003233
:010F8C003232
:010F8D003231
:010F8E003230
:010F8F00322F
:010F9000322E
:010F9100322D
:010F9200322C
:010F9300322B
:010F9400322A
:010F95003229
:010F96003228
:010F97003227
:050F9800D310AF01C3FE
:0E0F9D00C0D0AA82AB8390E600E05418C423B3
:060FAB00541FFCB401001C
:090FB100E433FC60047C018016AD
:0E0FBA0090E600E05418C423541FFDBD01044E
:040FC8007D02800224
:020FCC007D04A2
:020FCE008D0490
:0A0FD000D2CDD2CC8C19751A007531
:0A0FDA001B00751C009071B075F04B
:0E0FE4000BE4C002C003C0041216F6AD82AECC
:0C0FF20083AFF0F8D004D003D0028A19BD
:060FFE008B1A751B007543
:0C1004001C008D828E838FF0E8C0041267
:0E1010001765AD82AE83AFF0F8D0040DBD00C1
:0A101E00090EBE00050FBF00010817
:0E102800E8C313F8EF13FFEE13FEED13FD7493
:0E103600FFC39DFD74FF9EFE8ECB7E00EC601E
:05104400047A018002A6
:021049007A002B
:0E104B00EA2DF5CAD2CAC29FD29EC29DD29C87
:0A105900438780D299D0D092AF22D5
:091063003098FD859982C29822A3
:02106C00AA8256
:05106E0010990280FB57
:031073008A992235
:0E107600AA82BA0A0A75820DC00212106CD04E
:011084000269
:0E1085008A82C00212106CD002BA0D0675826B
:041093000A02106CD1
:011097002236
:0E109800AA82AB8390E600E05418C423541FD4
:0410A600FCB4010095
:0B10AA00E433FC60067CB17D00801C7C
:0E10B50090E600E05418C423541FFEBE01064E
:0610C3007E617F01800444
:0410C9007EC27F0262
:0410CD008E048F05F9
:0410D1008C198D1ACF
:0810D500151974FFB51902158D
:0110DD001AF8
:0A10DE00E519451A70F11ABAFF0176
:0110E8001BEC
:0510E900EA4B70E42257
:0110EE0032CF
:0610EF00C01885811812F3
:0510F5001076D0182266
:0810FA0085827385837485F083
:0511020075E4F570F535
:0411070071F5728587
:03110B00177690C4
:05110E0010EF0211D3F7
:06111300C018858118E5FB
:071119001824FBF576E4F554
:0411200070F571F500
:0711240072E51824FBF886B8
:06112B00730886740886BB
:05113100759010EF12A3
:0511360011D3D01822C6
:07113B00AA82C066C067C074
:06114200687452C0E07465
:0611480011C0E0C064C00C
:04114E00658A82220A
:0A115200158115811581056EE4B5C5
:04115C006E02056FAB
:01116000226C
:0E116100AA8274302AFA24C6500A74072AFAA9
:06116F00300503430220DD
:051175008A8202113B1B
:0E117A00E582FAC4540FF582C002121161D052
:0911880002740F5AF58202116194
:06119100858219AB69AC78
:041197006AAD6BAE24
:04119B006CAF6D7553
:02119F001A2014
:0E11A100EF2FFFEE235401FA4207EB2BFBEC7D
:0C11AF0033FCED33FDEE33FEC3EF951969
:0A11BB004008EFC39519FF4303013C
:0611C500D51AD98B698CDC
:0411CB006A8D6B8E30
:0411CF006C8F6D2292
:0711D30085826485836585B8
:0311DA00706685B7
:0311DD00716785B2
:0411E0007268E4F558
:0311E4006EF56F36
:0511E700AA73AB74AC1B
:0C11EC00758A828B838CF01216DAFD7479
:0911F800012AF573E43BF5748C47
:0812010075EDFA70030216BA44
:05120900BA250280037C
:03120E000216B213
:05121100C206C207C285
:0412160008C209C23F
:04121A000AC20BC237
:04121E000CC20D757C
:0812220077007578007DFFAE36
:04122A0073AF74AB7F
:01122E00754A
:0E122F008E828F838BF01216DAFAA3AE82AF96
:06123D00838E738F748B99
:0B12430075BA25078A8212113B8099C2
:05124E008A04BC300021
:0D125300402A8A04EC24C64023BDFF13E5A9
:0B1260007875F00AA4FCEA24D02CF5FD
:07126B007870C1D20780BDBD
:0D127200ED75F00AA4FCEA24D02CFD80B03C
:0A127F00BA2E07BDFFAA7D0080A66D
:051289008A04BC6100B5
:0D128E00400E8A04EC248540075302DFD295
:03129B00058002C9
:02129E00C20587
:0512A000BA2002805598
:0512A500BA2B02804B92
:0512AA00BA2D02804195
:0512AF00BA4202804B71
:0512B400BA4302805066
:0612B900BA4403021464B4
:0612BF00BA460302147A96
:0612C500BA4903021464A3
:0512CB00BA4C02803462
:0612D000BA4F0302146B8B
:0612D600BA50030213FBF5
:0512DC00BA5302804C32
:0612E100BA55030214706F
:0612E700BA580302147561
:0312ED0002147E6A
:0512F000D20602122FDE
:0512F500D20802122FD7
:0512FA00D20902122FD1
:0512FF00D20B02122FCA
:05130400D20C02122FC3
:08130900300B0AE57614F888A8
:05131100768602800F4A
:0A131600E57624FEF88876860308C9
:051320008604188B0299
:081325008A8212113B021487B9
:0A132D00E57624FDF88876860308B3
:0A133700860408860618188B698CDE
:041341006A8E6B85C0
:061345006982856A8385C0
:0C134B006BF0C0051216C2AB82AC83D060
:0613570005BDFF028B053D
:0A135D0020062CC3EB95785026E51E
:0613670078C39BF578AC91
:01136D007807
:0C136E008C061C8C78EE6014758220C088
:0E137A0003C004C00512113BD005D004D003FF
:0213880080E4FF
:02138A008C785D
:02138C008D04CE
:07138E00856982856A8385F1
:0C1395006BF01216DAFDFA602F8C051CBC
:0E13A100C374808DF063F08095F050208A8236
:0C13AF00C003C00412113BD004D003ADF9
:0413BB0069AE6AAFFE
:0613BF006B0DBD00010EE4
:0513C5008D698E6A8FA6
:0313CA006B80C174
:0613CD0020060302148754
:0913D300C3EB9578400302148776
:0713DC00E578C39BF578AC36
:0113E3007891
:0B13E4008C051C8C78ED700302148552
:0C13EF00758220C00412113BD00480E97C
:0A13FB00E57624FDF88876860508E3
:0A140500860608860718188D698E08
:04140F006A8F6BADC8
:041413006BBD80002D
:0614170040047A4380143A
:03141D00BD6000AF
:0614200040047A50800B2D
:03142600BD4000C6
:0614290040047A49800234
:02142F007A58E9
:0E1431008A82C00212113B75823A12113B757D
:0E143F00823012113B75827812113BD002BA36
:04144D004902800BC5
:05145100BA5002800604
:06145600856A8212117A82
:08145C0085698212117A8023D8
:07146400D20A75770A801C13
:05146B007577088017F1
:0514700075770A8012EF
:05147500757710800DE9
:04147A00D20D800906
:07147E008A8212113B80027B
:021485008C7861
:09148700300D5AE57624FCF888CA
:0C14900076860408860508860608860794
:08149C001818188C698D6A8E86
:0414A4006B8F6C7569
:0314A800694A7519
:0314AB006A187547
:0214AE006B8051
:0414B00085697A854B
:0314B4006A7B85CB
:0514B7006B7C740125AF
:0714BC007AFFE4357BFCAD73
:0414C3007C8F698C25
:0414C7006A8D6B853A
:0614CB007A82857B838517
:0A14D1007CF01216DAFCFA70030238
:0214DB0011E717
:0714DD008A8212113B80CC52
:0714E400E57770030211E738
:0414EB00757982305D
:0714EF000B2BE57614F888D1
:0A14F60076E6FD3395E0FEFFFC8D65
:04150000698E6A8FF7
:041504006B8C6C2060
:0A1508000A5EAC697D007E007F00E2
:051512008C698D6A8E5A
:051517006B8F6C804C9D
:09151C00300C1FE57624FCF88870
:0C152500768604088605088606088607FE
:081531001818188C698D6A8EF0
:051539006B8F6C802A9D
:0A153E00E57624FEF888768604089E
:0C154800860518ED3395E0FEFF8C698DE0
:041554006A8E6B8FA1
:051558006C200A0CAC40
:08155D0069AD6A7E007F008E7B
:031565006B8F6C1D
:0A156800300A22E56C30E71BC3E4F3
:091572009569FCE4956AFDE4951D
:07157B006BFEE4956CFF8C90
:04158200698D6A8E77
:051586006B8F6C800278
:02158B00C20A92
:06158D00D20EA8797C00DB
:0A159300756D00857782C004C0006A
:0B159D00121191D000D004200E0DE5CB
:0A15A8006DC4FDE6FE4DF6188879CB
:0215B2008002B5
:0215B400A66D22
:0815B6000C8C03B20EE569453F
:0415BE006A456B45CA
:0815C2006C70CE88798C03E502
:0615CA0078700375780142
:0A15D000200724200621EB04FCADE7
:0115DA007898
:0E15DB00C3EC9D5015758220C003C004C005EE
:0C15E90012113BD005D004D0031D80E699
:0215F5008D78EF
:0C15F700300A0E75822DC00312113BD08B
:051603000315788023AF
:0C160800EB602030080E75822BC003122E
:08161400113BD0031578800F93
:0C161C0030090C758220C00312113BD075
:031628000315782F
:05162B00200624AC784C
:0B1630008C051C8C78C3EB9D502B3008
:06163B0007047D3080026F
:021641007D200A
:0E1643008D82C003C00412113BD004D003807E
:01165100DEBA
:0A165200C3EB95785008E578C39BC0
:04165C00F578800796
:05166000757800800216
:021665008C787F
:02166700A87960
:0A1669008B041BEC6026B20E200E6D
:0B1673000A08E6C4540FFC8C6D8007D1
:07167E008604740F5CF56D9A
:0C168500856D82C003C000121161D0000E
:04169100D00380D42E
:061695002006030211E72C
:02169B00AB782A
:09169D008B041BEC70030211E741
:0C16A600758220C00312113BD00380EBC2
:0816B2008A8212113B0211E7CC
:0716BA00856E82856F83221B
:0B184A003C4E4F20464C4F41543E00E6
:0116C10032F6
:0416C200AA82AB83CA
:0816C6001216DA6003A380F89C
:0C16CE00C3E5829AF582E5839BF5832238
:0301BB00758182C9
:0A01BE001217CAE58260030201B6C1
:0E16DA0020F71430F6148883A88220F507E666
:0616E800A88375830022B7
:0316EE00E280F7A0
:0316F100E493225D
:0216F400E022F2
:0C16F600AAF0FBE5828519F0A4FCADF021
:0C170200E5838519F0A42DFDE435F0FE10
:0C170E00E582851AF0A42DFDE5F03EFEFA
:0C171A00E433FFEA8519F0A42EFEE5F090
:0C1726003FFFE583851AF0A42EFEE5F0DD
:0C1732003FFFE582851BF0A42EFEE5F0D1
:0B173E003FFFEB8519F0A42FFFEA85A8
:0A1749001AF0A42FFFE583851BF0C2
:0C175300A42FFFE582851CF0A42F8EF06F
:05175F008D838C822245
:011764003252
:08176500FB7A20E4FCFDFEFF0D
:0E176D00E5822582F582E58333F583E5F033CE
:0B177B00F5F0EB33FB4017DAE9804289
:0E178600E5822582F582E58333F583E5F033B5
:05179400F5F0EB33FB52
:0E179900EC33FCED33FDEE33FEEF33FFEC9549
:0617A70019ED951AEE9504
:0817AD001BEF951C4013EC95A5
:0817B50019FCED951AFDEE95FB
:0917BD001BFEEF951CFF438201A5
:0217C600DABE89
:0217C800EB2212
:0417CA007582002202
:00000001FF
