:040000000201BB320C
:01000B0032C2
:0100130032BA
:01001B0032B2
:0100230032AA
:01002B0032A2
:01003300329A
:01003B003292
:01004300328A
:01004B003282
:01005300327A
:01005B003272
:01006300326A
:03006B000205C0CB
:030073000205D8AB
:03007B000206BEBC
:03008300020A95D9
:03008B0002062545
:03009300020670F2
:03009B000206BB9F
:0300A300020ABF8F
:0300AB00020AC086
:0300B300020AC17D
:0300BB00020AC472
:0300C300020A9797
:0300CB00020AB175
:0300D300020AB26C
:0300DB00020AB462
:0300E3000206C052
:0300EB0002129569
:0300F3000206BC46
:0300FB000206BD3D
:030103000206BF32
:03010B000206C128
:030113000206C21F
:03011B000211F2DC
:03012300020ABD10
:03012B00020AC203
:03013300020AC5F8
:03013B00020AC7EE
:03014300020ABEEF
:03014B00020AC3E2
:03015300020AC6D7
:03015B00020AC8CD
:03016300020C1F6C
:03016B00020AB5D0
:03017300020AB7C6
:03017B00020AB9BC
:03018300020ABBB2
:03018B00020AB6AF
:03019300020AB8A5
:03019B00020ABA9B
:0301A300020ABC91
:0301AB00020AB392
:0301B300020A96A7
:06021400751701751800CA
:03022C000201B616
:0501B60012022F80FE83
:0A022F0090E60BE4F0C202E4F513C0
:05023900F514F515F5B8
:04023E0016C201756E
:060242001200C200E4F509
:0A02480010F51190E680E0440AF082
:0E0252009005DC120BC990E680E054F7F090A6
:0E026000E600E0FA74E75A90E600F5F074103C
:0E026E0045F0F090E601E04440F090E100120F
:0C027C000AC9E500D2E890E668E04408FA
:0E028800F090E65CE04401F090E65CE0440299
:0E029600F090E65CE04420F090E65CE0FA4474
:0D02A40010F090E61274A2F000000000902F
:0E02B100E61474E2F00000000090E611E0FA9E
:0E02BF00547FF00000000090E610E0FA547F3B
:0E02CD00F00000000090E613E0FA547FF0000D
:0E02DB0000000090E615E0FA547FF0000000ED
:0E02E9000090E6917480F00000000090E69115
:0A02F7007480F0D2AF74FFC0E07411
:0C03010012C0E07480C0E0120C441581B2
:0E030D001581158175B20075B3FF43B50DD291
:05031B00B0D2B2D2B324
:0803200030011A7418C0E074EA
:0C03280013C0E07480C0E0120C4415818A
:09033400158115811206C3C201F6
:0D033D00E5AA20E0DE90E690E0FB7A00905B
:0C034A00E691E0FC7D004AF510ED4BF55B
:0B0356001190F000E0FABA6302801979
:05036100BA6402803EB9
:05036600BA650280628F
:06036B00BA66030204461D
:06037100BAAF0302042AEA
:0303770002044E2F
:0E037A00C2B3C2B27590D7D2B2759055C2B25E
:0E038800D2B290F800E580F0D2B390E698E48F
:0E039600F00000000090E6997401F00204509F
:0603A400C2B37A017B00E8
:0A03AA00C3EA9510EB95115015C23F
:0E03B400B28A8274F02BF583E0F590D2B20A83
:0603C200BA00E50B80E229
:0503C800D2B302045055
:0603CD00C2B37A017B00BF
:0A03D300C3EA9510EB95115015C216
:0E03DD00B28A8274F02BF583E0F590D2B20A5A
:0603EB00BA00E50B80E200
:0403F1007A007B0013
:0E03F500C3EA9408EB94015018C2B27590AAA6
:0E040300D2B28A8274F82BF583E580F00ABA33
:0504110000E20B80DF9A
:0D041600D2B390E6987401F0000000009051
:07042300E6997408F0802641
:0E042A00C2B0D290C291D295D293D292D29704
:0E043800D2969003E8120BC9D2B0C290800A8F
:08044600C2B3D290D2B38002D0
:02044E00D2904A
:0904500090E6917480F002032093
:0E045900AA82BAB15290E6BAE0F582C0021251
:0E04670007E0AB82AC83E0FD7E00C003C00462
:0A047500C005C006742AC0E074132D
:0E047F00C0E07480C0E0120C44E58124FBF55F
:0E048D0081D004D003D002EB4C60188B828C1F
:0E049B0083E090E740F090E68AE4F090E68B74
:0704A9007401F075820122CD
:0B04B0007B00C002C0037433C0E07486
:0C04BB0013C0E07480C0E0120C44E58126
:0804C70024FBF581758200227F
:0A04CF00AA82C002745BC0E074133F
:0E04D900C0E07480C0E0120C4415811581153E
:0A04E70081D002EA7014AA19AB1AC2
:0C04F100AC1B8A828B838CF0E4120A980A
:0404FD0075820122E1
:0405010075820022DD
:0C050500AA82AB1C7C008A057E00C002AC
:0C051100C003C004C005C006746AC0E04E
:0C051D007413C0E07480C0E0120C44E5D0
:0D0529008124F9F581D002EA60030205AAE1
:0C053600E51C707090E6837402F0E0FA9F
:0E05420090E68374204AF090E6837416F0E091
:0E055000FA90E68374204AF090E6047480F07E
:0E055E000000000090E6047402F000000000AF
:0E056C0090E604E4F00000000090E691748038
:0E057A00F00000000090E6917480F000000098
:0E0588000090E6047480F00000000090E6048D
:0E0596007486F00000000090E604E4F000001F
:0605A40000007582012237
:0405AA007582002234
:0405AE00758201222F
:0905B200AA82BA01047A01800258
:0205BB007A00C4
:0305BD008A82220D
:0C05C000C0E0C082C083D2015391EF90D4
:0C05CC00E65D7401F0D083D082D0E032F4
:0E05D800C0E0C082C083C0D075D008903C0047
:0E05E600E02401F0A3E03400F0903C00E0FAC5
:0C05F400A3E0FBBA4019BB1F16B2033095
:0806000003067592B8E28004C4
:040608007592B0E255
:07060C00903C00E4F0A3F0B4
:0E0613005391EF90E65D7402F0D0D0D083D00A
:0406210082D0E03271
:0C062500C022C0E0C0F0C082C083C00250
:0E063100C003C004C005C006C007C000C00161
:0E063F00C0D075D0007582001209995391EF5A
:0E064D0090E65D7410F0D0D0D001D000D00740
:0E065B00D006D005D004D003D002D083D082C8
:07066900D0F0D0E0D02232F6
:0C067000C022C0E0C0F0C082C083C00205
:0E067C00C003C004C005C006C007C000C00116
:0E068A00C0D075D0007582011209995391EF0E
:0E06980090E65D7420F0D0D0D001D000D007E5
:0E06A600D006D005D004D003D002D083D0827D
:0706B400D0F0D0E0D02232AB
:0E12FF00446F6E6520696E697469616C697A6E
:0B130D00696E672073747566660A0045
:0E13180048616E646C65207365747570646165
:0413260074610A00E4
:09132A00657020253032780A00BC
:0E1333004E65656420746F20696D706C656D89
:0E134100656E742076656E646F7220636F6D4A
:0C134F006D616E643A20253032780A008F
:0E135B0047657420496E746572666163650AA9
:011369000083
:0E136A0053657420696E746572666163652058
:0E137800256420746F20616C743A2025640A8D
:011386000066
:02139200000059
:0E3E000012010002FFFFFF404324DC0001001E
:043E0E0001020001AC
:0A3E12000A060002FFFFFF40010056
:093E1C00090220000101008032BE
:0E3E25000904000002FFFFFF03070502020070
:093E3300020007058602000200EE
:093E3C000902200001010080329E
:0E3E45000904000002FFFFFF03070502024010
:093E530000000705860240000092
:043E5C00040309044E
:0E3E60003203610065007300730065006E00A0
:0E3E6E007400200054006500630068006E00C0
:0E3E7C006F006C006F006700790020004C00A2
:083E8A00740064002E0020000A
:0E3E9200100361006500730032003200300042
:023EA000200000
:0C3EA2000C03690046006100630065002D
:023EAE00000012
:0106BB00320C
:0106BC00320B
:0106BD00320A
:0106BE003209
:0106BF003208
:0106C0003207
:0106C1003206
:0106C2003205
:0601EA00E478FFF6D8FDE9
:0801C8007902E94400601B7A92
:0501D00001901392787C
:0301D50000759220
:0A01D8003CE493F2A308B80002050E
:0801E20092D9F4DAF27592FFE4
:07021A007524007525007535
:03022100263C7503
:03022400273E75FD
:03022700281C751B
:02022A00293E6B
:0C06C30090E6B9E0FA24F450030207C3EB
:0706CF00EA2A2A9006D67307
:0706D6000206FA02070F0201
:0606DD0007C3020724021E
:0606E30007C30207C30279
:0606E90007390207C302FD
:0606EF00073F020757025D
:0506F50007710207A5DA
:0A06FA00120837E58260030207D8FA
:0B07040090E6A0E0FA4401F00207D8E4
:0A070F001208C3E58260030207D858
:0B07190090E6A0E0FA4401F00207D8CF
:0A072400120911E58260030207D8F4
:0B072E0090E6A0E0FA4401F00207D8BA
:060739001209C40207D8FA
:0E073F001205AEAA8290E740EAF090E68AE446
:0A074D00F090E68B7401F00207D86B
:0E07570090E6BAE0F5821205B2E58260030278
:0207650007D8B3
:0A07670090E6A0E0FA4401F080677C
:0907710090E6BCE0FA751923754D
:08077A001A00751B408A82126F
:0E07820004CFE582700A90E6A0E0FA4401F090
:020790008046A1
:0C07920090E740E523F090E68AE4F09048
:07079E00E68B7401F08033CB
:0C07A50090E6BCE0FA90E6BAE0F51C8A91
:0E07B10082120505E582701F90E6A0E0FA4472
:0407BF0001F08015B0
:0E07C30090E6B9E0F582120459E582700890C4
:0707D100E6A0E0FA4401F08C
:0807D80090E6A0E04480F0224D
:0E07E000AA82747F5AFB24F74049EB2B2B9022
:0307EE0007F1739D
:0707F10002080C02081002CF
:0607F80008230208330291
:0607FE0008270208330287
:06080400082B020833027C
:02080A00082FB5
:04080C0090E6A022B0
:0A081000EA30E7067AA27BE68004D6
:04081A007AA17BE65E
:05081E008A828B832299
:0408230090E6A32296
:0408270090E6A42291
:04082B0090E6A5228C
:04082F0090E6A62287
:04083300900000220F
:0A08370090E6B8E0FABA80028022D1
:05084100BA81028008ED
:05084600BA82028037B8
:03084B000208BBE5
:0E084E0090E740E4F090E741F090E68AF090E9
:07085C00E68B7402F0805CE2
:0A086300E52525E0FAE524420290A5
:0E086D00E740EAF090E741E4F090E68AF09070
:07087B00E68B7402F0803DE2
:0E08820090E6BCE0F5821207E0AA82AB83EAA2
:060890004B7003F582220B
:0D0896008A828B83E0FA30E0047A01800250
:0208A3007A00D9
:0E08A50090E740EAF090E741E4F090E68AF038
:0808B30090E68B7402F0800452
:0408BB007582002220
:0408BF00758201221B
:0C08C30090E6B8E0FA6005BA0237801138
:0C08CF0090E6BAE0FABA01057525008039
:0108DB0031EB
:0408DC0075820022FF
:0D08E00090E6BAE0701A90E6BCE0F58212D6
:0E08ED0007E0AA82AB83E0FC5304FE8A828BF4
:0508FB0083ECF0800D0C
:0409000075820022DA
:0909040090E6B9E0F58202045905
:04090D0075820122CC
:0C09110090E6B8E0FA6008BA0202801F0D
:03091D0002098C40
:0B09200090E6BAE0FABA020302099563
:0C092B0090E6BAE0FABA010575250180DB
:010937005D62
:0409380075820022A2
:0D093C0090E6BAE0704690E6BCE0F582124D
:0D09490007E0AA82AB83EA4B7003F582221F
:0E0956008A828B83E0FC4304018A828B83EC4F
:0E096400F090E6BCE0FA53020F90E6BCE054BF
:0D09720080C423541FFB90E683EB2AF09015
:09097F00E683E0FA4420F0800D4B
:040988007582002252
:09098C0090E6B9E0F5820204597D
:040995007582012244
:09099900AA82D20410AF02C204CC
:0709A200EA600E75261C75CA
:0309A900273E7571
:0309AC00283C756F
:0409AF00293E800C51
:0409B30075263C75F4
:0309B700273E7563
:0309BA00281C7581
:0209BD00293ED1
:0509BF00A20492AF222A
:0A09C40090E6BBE0FABA01028019C8
:0509CE00BA02028027BF
:0509D300BA03028030B0
:0609D800BA0603020A6CDE
:0609DE00BA0703020A7FC4
:0309E400020A8D77
:0A09E7007A007B3E90E6B3EBF07A55
:0909F100007B3E90E6B4EAF0221E
:0909FA0090E6B3E527F0AA26906F
:050A0300E6B4EAF02258
:0A0A08007A5C7B3E7C8090E6BAE049
:030A1200FD7E0066
:090A15008E070EEDB507028036D4
:0E0A1E008A828B838CF012120B2AFAE43BFBC7
:0E0A2C0074012AFFE43BF88C018F82888389D5
:0A0A3A00F012120BFFBF030280064A
:060A44007A007B007C003B
:0A0A4A00EA4B4C6005C3ED9E50C15D
:0E0A5400EA4B4C600B90E6B3EBF090E6B4EA90
:020A6200F02280
:080A640090E6A0E04401F0223D
:0A0A6C007A127B3E90E6B3EBF07ABD
:090A7600127B3E90E6B4EAF02286
:090A7F0090E6B3E529F0AA2890E5
:050A8800E6B4EAF022D3
:080A8D0090E6A0E04401F02214
:010A9500322E
:010A9600322D
:010A9700322C
:0E0A980020F71030F6118883A88220F507F6AB
:050AA600A88375830028
:010AAB002228
:030AAC00F280F7DE
:020AAF00F02233
:010AB1003212
:010AB2003211
:010AB3003210
:010AB400320F
:03004300023F0079
:093F00000205C0000205D8000210
:083F090006BE00020A95000249
:083F1100062500020670000203
:083F190006BB00020ABE000213
:083F21000ABF00020AC0000201
:083F29000AC100020AC40002F3
:083F31000A9700020AB1000228
:083F39000AB200020AB4000202
:083F410006C000020ABE0002E6
:083F49001295000206BC000203
:083F510006BD000206BF0002DC
:083F590006C1000206C20002CD
:083F610011F200020ABE000289
:083F69000ABE00020ABE0002BC
:083F71000ABD00020AC20002B1
:083F79000AC500020AC700029C
:083F81000AC300020AC6000297
:083F89000AC800020C1F00022F
:083F91000AB500020AB70002A4
:083F99000AB900020ABB000294
:083FA1000AB600020AB8000292
:083FA9000ABA00020ABC000282
:073FB1000AB300020A9600AA
:010AB500320E
:0801F0007800E84400600A7980
:0301F800007592FD
:0601FB003CE4F309D8FC0E
:080201007800E84400600C796C
:0B02090000903C00E4F0A3D8FCD9FA00
:010AB600320D
:010AB700320C
:010AB800320B
:010AB900320A
:010ABA003209
:010ABB003208
:010ABC003207
:010ABD003206
:010ABE003205
:010ABF003204
:010AC0003203
:010AC1003202
:010AC2003201
:010AC3003200
:010AC40032FF
:010AC50032FE
:010AC60032FD
:010AC70032FC
:010AC80032FB
:050AC900D310AF01C3D2
:0E0ACE00C0D0AA82AB8390E600E05418C42387
:060ADC00541FFCB40100F0
:090AE200E433FC60047C01801681
:0E0AEB0090E600E05418C423541FFDBD010422
:040AF9007D028002F8
:020AFD007D0476
:020AFF008D0464
:0A0B0100D2CDD2CC8C4375440075B0
:0A0B0B0045007546009071B075F0CA
:0E0B15000BE4C002C003C004121227AD82AE72
:0C0B230083AFF0F8D004D003D0028A4366
:060B2F008B4475450075C2
:0C0B350046008D828E838FF0E8C0041211
:0E0B41001296AD82AE83AFF0F8D0040DBD0069
:0A0B4F00090EBE00050FBF000108EB
:0E0B5900E8C313F8EF13FFEE13FEED13FD7467
:0E0B6700FFC39DFD74FF9EFE8ECB7E00EC60F2
:050B7500047A0180027A
:020B7A007A00FF
:0E0B7C00EA2DF5CAD2CAC29FD29EC29DD29C5B
:0A0B8A00438780D299D0D092AF22A9
:090B94003098FD859982C2982277
:020B9D00AA822A
:050B9F0010990280FB2B
:030BA4008A992209
:0E0BA700AA82BA0A0A75820DC002120B9DD0F6
:010BB500023D
:0E0BB6008A82C002120B9DD002BA0D06758213
:040BC4000A020B9D79
:010BC800220A
:0E0BC900AA82AB8390E600E05418C423541FA8
:040BD700FCB4010069
:0B0BDB00E433FC60067CB17D00801C50
:0E0BE60090E600E05418C423541FFEBE010622
:060BF4007E617F01800418
:040BFA007EC27F0236
:040BFE008E048F05CD
:040C02008C438D444E
:080C0600154374FFB54302150C
:010C0E0044A1
:0A0C0F00E543454470F11ABAFF01F5
:010C19001BBF
:050C1A00EA4B70E4222A
:010C1F0032A2
:060C2000C01E85811E12BA
:050C26000BA7D01E2207
:080C2B0085823985833A85F0CA
:050C33003BE4F536F57D
:040C380037F53885CF
:030C3C001D3C90CC
:050C3F000C20020D0471
:060C4400C01E85811EE5C3
:070C4A001E24FBF53CE4F55C
:040C510036F537F548
:070C550038E51E24FBF886C0
:060C5C003908863A088603
:050C62003B900C201284
:050C67000D04D01E2267
:070C6C00AA82C02CC02DC0BC
:060C73002E7483C0E07442
:060C79000CC0E0C02AC01F
:040C7F002B8A822218
:0A0C83001581158115810534E4B5D3
:040C8D0034020535F3
:010C91002240
:0E0C9200AA8274302AFA24C6500A74072AFA7D
:060CA000300503430220B1
:050CA6008A82020C6CC3
:0E0CAB00E582FAC4540FF582C002120C92D0FA
:090CB90002740F5AF582020C923C
:060CC200858243AB2FAC5C
:040CC80030AD31AE6C
:040CCC0032AF33759B
:020CD0004420BE
:0E0CD200EF2FFFEE235401FA4207EB2BFBEC51
:0C0CE00033FCED33FDEE33FEC3EF954313
:0A0CEC004008EFC39543FF430301E6
:060CF600D544D98B2F8CC0
:040CFC00308D318E78
:040D0000328F3322D9
:070D040085822A85832B85FF
:030D0B00362C85FE
:030D0E00372D85F9
:040D1100382EE4F59F
:030D150034F5357D
:050D1800AA39AB3AAC62
:0C0D1D003B8A828B838CF012120BFD7459
:090D2900012AF539E43BF53A8C8E
:080D32003BEDFA70030211EB26
:050D3A00BA2502800350
:030D3F000211E3BB
:050D4200C206C207C259
:040D470008C209C213
:040D4B000AC20BC20B
:040D4F000CC20D7550
:080D53003D00753E007DFFAE7E
:040D5B0039AF3AABC7
:010D5F003B58
:0E0D60008E828F838BF012120BFAA3AE82AF3D
:060D6E00838E398F3A8BE1
:0B0D74003BBA25078A82120C6C8099A4
:050D7F008A04BC3000F5
:0D0D8400402A8A04EC24C64023BDFF13E57D
:0B0D91003E75F00AA4FCEA24D02CF50B
:070D9C003E70C1D20780BDCB
:0D0DA300ED75F00AA4FCEA24D02CFD80B010
:0A0DB000BA2E07BDFFAA7D0080A641
:050DBA008A04BC610089
:0D0DBF00400E8A04EC248540075302DFD269
:030DCC000580029D
:020DCF00C2055B
:050DD100BA200280556C
:050DD600BA2B02804B66
:050DDB00BA2D02804169
:050DE000BA4202804B45
:050DE500BA430280503A
:060DEA00BA4403020F955C
:060DF000BA4603020FAB3E
:060DF600BA4903020F954B
:050DFC00BA4C02803436
:060E0100BA4F03020F9C32
:060E0700BA5003020F2C9B
:050E0D00BA5302804C05
:060E1200BA5503020FA116
:060E1800BA5803020FA608
:030E1E00020FAF11
:050E2100D206020D6085
:050E2600D208020D607E
:050E2B00D209020D6078
:050E3000D20B020D6071
:050E3500D20C020D606B
:080E3A00300B0AE53C14F888B6
:050E42003C8602800F58
:0A0E4700E53C24FEF8883C86030811
:050E51008604188B026D
:080E56008A82120C6C020FB835
:0A0E5E00E53C24FDF8883C860308FB
:0A0E6800860408860618188B2F8CEC
:040E7200308E318508
:060E76002F828530838508
:0C0E7C0031F0C0051211F3AB82AC83D042
:060E880005BDFF028B0511
:0A0E8E0020062CC3EB953E5026E52C
:060E98003EC39BF53EACD9
:010E9E003E15
:0C0E9F008C061C8C3EEE6014758220C096
:0E0EAB0003C004C005120C6CD005D004D003A7
:020EB90080E4D3
:020EBB008C3E6B
:020EBD008D04A2
:070EBF00852F828530838539
:0C0EC60031F012120BFDFA602F8C051C9D
:0E0ED200C374808DF063F08095F050208A820A
:0C0EE000C003C004120C6CD004D003ADA1
:040EEC002FAE30AF46
:060EF000310DBD00010EF2
:050EF6008D2F8E308FEE
:030EFB003180C182
:060EFE00200603020FB8FC
:090F0400C3EB953E4003020FB857
:070F0D00E53EC39BF53EAC7D
:010F14003E9E
:0B0F15008C051C8C3EED7003020FB633
:0C0F2000758220C004120C6CD00480E923
:0A0F2C00E53C24FDF8883C8605082A
:0A0F3600860608860718188D2F8E16
:040F4000308F31AD10
:040F440031BD80003B
:060F480040047A4380140E
:030F4E00BD600083
:060F510040047A50800B01
:030F5700BD40009A
:060F5A0040047A49800208
:020F60007A58BD
:0E0F62008A82C002120C6C75823A120C6C75F9
:0E0F70008230120C6C758278120C6CD002BAB2
:040F7E004902800B99
:050F8200BA50028006D8
:060F8700853082120CAB64
:080F8D00852F82120CAB8023BA
:070F9500D20A753D0A801C21
:050F9C00753D088017FF
:050FA100753D0A8012FD
:050FA600753D10800DF7
:040FAB00D20D8009DA
:070FAF008A82120C6C800223
:020FB6008C3E6F
:090FB800300D5AE53C24FCF888D8
:0C0FC1003C8604088605088606088607A2
:080FCD001818188C2F8D308ECE
:040FD500318F3275B1
:030FD9002F8775EA
:030FDC003013755A
:020FDF0031805F
:040FE100852F408593
:030FE50030418513
:050FE8003142740125F7
:070FED0040FFE43541FCADBB
:040FF400428F2F8C6D
:040FF800308D318582
:060FFC004082854183855F
:0A10020042F012120BFCFA70030218
:02100C000D18BD
:07100E008A82120C6C80CCF9
:07101500E53D7003020D1818
:04101C00753F4C30A0
:071020000B2BE53C14F888DE
:0A1027003CE6FD3395E0FEFFFC8D72
:041031002F8E308F3F
:04103500318C3220A8
:0A1039000A5EAC2F7D007E007F00F0
:051043008C2F8D308EA2
:05104800318F32804CE5
:09104D00300C1FE53C24FCF8887E
:0C1056003C86040886050886060886070C
:081062001818188C2F8D308E38
:05106A00318F32802AE5
:0A106F00E53C24FEF8883C860408E6
:0C107900860518ED3395E0FEFF8C2F8DEE
:04108500308E318FE9
:0510890032200A0CAC4E
:08108E002FAD307E007F008EC3
:03109600318F3265
:0A109900300A22E53230E71BC3E401
:0910A300952FFCE49530FDE49565
:0710AC0031FEE49532FF8CD8
:0410B3002F8D308EBF
:0510B700318F328002C0
:0210BC00C20A66
:0610BE00D20EA83F7C00E9
:0A10C400753300853D82C004C000B2
:0B10CE00120CC2D000D004200E0DE573
:0A10D90033C4FDE6FE4DF618883F13
:0210E300800289
:0210E500A63330
:0810E7000C8C03B20EE52F454D
:0410EF003045314512
:0810F3003270CE883F8C03E54A
:0610FB003E7003753E018A
:0A110100200724200621EB04FCADBA
:01110B003EA5
:0E110C00C3EC9D5015758220C003C004C005C1
:0C111A00120C6CD005D004D0031D80E640
:021126008D3EFC
:0C112800300A0E75822DC003120C6CD032
:0511340003153E8023BD
:0C113900EB602030080E75822BC0031202
:081145000C6CD003153E800F75
:0C114D0030090C758220C003120C6CD01D
:0311590003153E3D
:05115C00200624AC3E5A
:0B1161008C051C8C3EC3EB9D502B3016
:06116C0007047D30800243
:021172007D20DE
:0E1174008D82C003C004120C6CD004D0038026
:01118200DE8E
:0A118300C3EB953E5008E53EC39B08
:04118D00F53E8007A4
:05119100753E00800224
:021196008C3E8D
:02119800A83F6E
:0A119A008B041BEC6026B20E200E41
:0B11A4000A08E6C4540FFC8C338007DF
:0711AF008604740F5CF533A8
:0C11B600853382C003C000120C92D000F0
:0411C200D00380D402
:0611C600200603020D18D3
:0211CC00AB3E38
:0911CE008B041BEC7003020D18E8
:0C11D700758220C003120C6CD00380EB6A
:0811E3008A82120C6C020D1847
:0711EB008534828535832263
:0B1387003C4E4F20464C4F41543E00AE
:0111F20032CA
:0411F300AA82AB839E
:0811F70012120B6003A380F843
:0C11FF00C3E5829AF582E5839BF583220C
:0301BB0075814CFF
:0A01BE001212FBE58260030201B695
:0E120B0020F71430F6148883A88220F507E639
:06121900A883758300228A
:03121F00E280F773
:03122200E4932230
:02122500E022C5
:0C122700AAF0FBE5828543F0A4FCADF0CA
:0C123300E5838543F0A42DFDE435F0FEBA
:0C123F00E5828544F0A42DFDE5F03EFEA4
:0C124B00E433FFEA8543F0A42EFEE5F03A
:0C1257003FFFE5838544F0A42EFEE5F087
:0C1263003FFFE5828545F0A42EFEE5F07B
:0B126F003FFFEB8543F0A42FFFEA8552
:0A127A0044F0A42FFFE5838545F042
:0C128400A42FFFE5828546F0A42F8EF019
:051290008D838C822219
:011295003226
:08129600FB7A20E4FCFDFEFFE1
:0E129E00E5822582F582E58333F583E5F033A2
:0B12AC00F5F0EB33FB4017DAE980425D
:0E12B700E5822582F582E58333F583E5F03389
:0512C500F5F0EB33FB26
:0E12CA00EC33FCED33FDEE33FEEF33FFEC951D
:0612D80043ED9544EE9584
:0812DE0045EF95464013EC9525
:0812E60043FCED9544FDEE957B
:0912EE0045FEEF9546FF43820125
:0212F700DABE5D
:0212F900EB22E6
:0412FB0075820022D6
:00000001FF
