:040000000201BB320C
:03000B00020C5292
:0100130032BA
:01001B0032B2
:0100230032AA
:01002B0032A2
:01003300329A
:01003B003292
:01004300328A
:01004B003282
:01005300327A
:01005B003272
:01006300326A
:03006B00020B6421
:03007300020B7C01
:03007B00020C5F15
:03008300021BD984
:03008B00020BBCA9
:03009300020C0755
:03009B00020C5CF8
:0300A300021C0339
:0300AB00021C0430
:0300B300021C0527
:0300BB00021C081C
:0300C300021BDB42
:0300CB00021BF520
:0300D300021BF617
:0300DB00021BF80D
:0300E3000214966E
:0300EB00021C8173
:0300F300020C5D9F
:0300FB00020C5E96
:030103000214954E
:03010B0002149744
:0301130002178E42
:03011B00021C645F
:03012300021C01BA
:03012B00021C06AD
:03013300021C09A2
:03013B00021C0B98
:03014300021C0299
:03014B00021C078C
:03015300021C0A81
:03015B00021C0C77
:03016300021C6318
:03016B00021BF97B
:03017300021BFB71
:03017B00021BFD67
:03018300021BFF5D
:03018B00021BFA5A
:03019300021BFC50
:03019B00021BFE46
:0301A300021C003B
:0301AB00021BF73D
:0301B300021BDA52
:06021400751001751100D8
:030232000201B610
:0501B60012023580FE7D
:0C02350090E60BE4F0C202903BF7E4F00E
:0A024100A3F0A3F0A3F0C2017514AE
:07024B0000C200E4F512F50A
:0C0252001390E600E0FA74E75A90E60012
:0E025E00F5F0741045F0F090E601E0FA44402F
:0E026C00F090E60174C0F00000000075B200D2
:0D027A0075B30075B581C290C2B0C2B71255
:0E0287000FC5E582903C02F043B30175B20151
:0B02950012146FE582701AD290755BA6
:0302A00006755C84
:0502A3003C755D0075D3
:0902A8005902E4F55A7582601256
:0502B10014981215C9AC
:0E02B600120FB990E61274A2F0000000009042
:0E02C400E61474E0F00000000090E611E0FA8D
:0E02D200547FF00000000090E610E0FA547F28
:0E02E000F00000000090E613E0FA547FF000FA
:0E02EE0000000090E615E0FA547FF0000000DA
:0C02FC0000E500D2E890E668E04408F05D
:0E03080090E65CE04401F090E65CE04402F018
:0E03160090E65CE04420F090E65CE04410F0DD
:0E03240090E681740AF0D2AF90E680E0FA20F5
:0D033200E11590E680E0440AF09005DC1231
:0A033F001C0D90E680E0FA54F7F080
:06034900903C0474A2F0D8
:07034F003001051217E7C29F
:0103560001A5
:0B035700903C04E0FABAA1030203DFAF
:05036200BAA202805662
:05036700BAA302800EA4
:06036C00BAA7030203EF33
:06037200BAA80302043BDF
:0203780080D52E
:0B037A00903C05E0FBEAB50302801494
:09038500903C05EAF0120FB9905A
:09038E003C04E0F5821212601239
:020397000FBF96
:0E03990090E6A7E0FB20E0AE90E6ABE0FB9024
:0D03A700E690F00000000090E6ACE0FB9056
:0903B400E691F0000000008092C7
:0B03BD00903C05E0FBEAB503028087DE
:0903C800903C05EAF0120FB99017
:0903D1003C04E0F58212126012F6
:0503DA000FBF02034FFC
:0E03DF0043B301C290120FB90000120FBF020B
:0203ED00034FBC
:0A03EF00903C05E0FABAA202800675
:0603F9007582A2121260E1
:0E03FF00903BFBE0FAA3E0FBA3E0FCA3E08A46
:0E040D00828B838CF0121044AA82903C03EA8A
:0C041B00F0BAAB08903C027401F08005C0
:05042700903C02E4F02E
:0D042C00903C0474A1F0903C0574A7F00210
:02043900034F6F
:0A043B007582A212126012111490D3
:0E0445003C03E0FABAAB08903C027401F08070
:0104530005A3
:05045400903C02E4F001
:0D045900903C0474A1F0903C0574A8F002E2
:02046600034F42
:0B04680085821590E6BBE0FC7B009055
:0B047300E6BAE07E004BF516EE4CF5FB
:0C047E001790E6BFE0FE7D0090E6BEE0B7
:0A048A007A004DF518EA4EF51990BE
:0E049400E6BDE0FF7E0090E6BCE0FB7C00EEE3
:0C04A2004203EF420474B0B51502804222
:0704AE0074B1B5150280676F
:0804B50074B2B515030205F64F
:0804BD0074B7B5150302094AEA
:0804C50074C1B515030207AB79
:0804CD0074C2B515030208CD4D
:0804D50074C3B5150302083ED3
:0804DD0074C4B51503020A0CFA
:0804E50074C5B51503020A58A5
:0304ED00020AAD53
:0E04F00090E6BAE0F582121904AE82AF83EEF8
:0604FE004F7003020AB179
:0E0504008E828F83E090E740F090E68AE4F06C
:0A05120090E68B7401F0758201225F
:0A051C0090E6B8E0FEBE40028072D7
:05052600BEC0028003CD
:03052B000205EED8
:07052E00E5184519700302F6
:0205350005F2CD
:0A053700C374409518E495195006AE
:060541007E407F008004F3
:04054700AE18AF1922
:0B054B0090E6A0E0FF20E1F88E38757C
:060556003900753A407502
:06055C003BE7753C008541
:03056200163685C5
:080565001737758251C0061220
:0E056D000F54D00690E68AE4F00000000090E3
:0B057B00E68BEEF07F00E518C39EF554
:0505860018E5199FF5C6
:05058B0019EE2516F534
:0505900016EF3517F520
:0305950017809636
:0A059800E5184519605490E68BE465
:0105A200F068
:0E05A30090E6A0E0FE20E1F890E68BE0FE8EF0
:0505B1004B754C0075C4
:0605B6004D40754EE77593
:0405BC004F00851651
:0305C00049851753
:0C05C3004A758251C006121370E582D008
:0605CF00067003F5822214
:0905D5007F00EE2516F516EF3546
:0405DE0017F517E511
:0605E20018C39EF518E5A8
:0605E800199FF51980AA1D
:0405EE0075820022F0
:0405F20075820122EB
:0A05F600751A10AE1690E6B8E0FF8B
:06060000BF40030206FDED
:05060600BFC0028003EB
:03060B000207A73C
:0A060E00C374409518E495194040AC
:0C06180090E6A0E0FF20E1F8756040755E
:0606240061E7756200852C
:03062A00185E85D2
:05062D00195F8E82122E
:0606320015EF756A40752A
:060638006BE7756C008504
:06063E00188285198312E9
:0E064400174890E68AE4F00000000090E68B74
:06065200E518F00206F9B4
:0C06580090E6A0E0FF20E1F8756040751E
:0606640061E775620075FC
:08066A005E40E4F55F8E821290
:0706720015EFE51824C0F5A7
:0606790018E51934FFF53D
:01067F001961
:0A068000E51845196073C374409536
:0A068A0018E4951950067F407A002D
:020694008004E0
:04069600AF18AA19D6
:0C069A0090E6A0E0FA20E1F8C37440955F
:0706A60018E49519401875D6
:0606AD006A40756BE77561
:0606B3006C008518828531
:0B06B9001983C007121748D0078018F3
:0A06C4008F027D00756A40756BE738
:0C06CE00756C008A828D83C00712167EB6
:0206DA00D00747
:0E06DC0090E68AE4F00000000090E68BEFF05C
:0906EA007A00E518C39FF518E53C
:0606F300199AF519808739
:0406F90075820022E4
:0506FD0090E68BE4F023
:0E07020090E6A0E0FA20E1F890E68BE0FA8A9B
:0507100059755A007547
:060715005B40755CE77516
:0B071B005D008E82C002C003C004120B
:0E0726001498AD82D004D003D002C374409565
:0A07340018E49519400ABD01671290
:06073E0015C9AD828060C8
:0A0744008A067F00E518C39EF51831
:05074E00E5199FF519FB
:0A075300E5184519604290E68BE4BA
:01075D00F0AB
:0E075E0090E6A0E0FE20E1F890E68BE0FAFEC7
:09076C007F00756A40756BE775AA
:0C0775006C008E828F83C002C003C004A1
:0E07810012154BAD82D004D003D0027E00E5ED
:06078F0018C39AF518E5FD
:06079500199EF51980B861
:09079B00EB4C70051215C9AD828A
:0307A4008D822221
:0407A7007582002235
:0A07AB0090E6B8E0FABA4002803C84
:0507B500BAC002800340
:0307BA0002083AF8
:0D07BD0090E6A0E0FA20E1F8903C03E09007
:0E07CA00E740F0903C04E090E741F0903C05E1
:0E07D800E0FA90E742F090E68AE4F0000000BC
:0B07E6000090E68B7403F07582012286
:0507F10090E68BE4F02E
:0E07F60090E6A0E0FA20E1F890E740E0FA90EB
:090804003C04F0BAA72CAA16ADC1
:08080D00177E007F008D1E8A9A
:050815001D751C0075BB
:0B081A001B007A007D00903BFBEB45CB
:090825001BF0EC451CA3F0EA45B0
:08082E001DA3F0ED451EA3F02F
:0408360075820122A4
:04083A0075820022A1
:0A083E0090E6B8E0FABA40028049E3
:05084800BAC0028002AD
:02084D00807AAF
:0E084F0090E6A0E0FA20E1F8A2B6E433C4037C
:0E085D0054F8FAA2B5E43325E025E04202A2E9
:0E086B00B3E43325E04202A2B2E433FB4202C2
:0E08790090E740EAF090E68AE4F0000000000C
:0A08870090E68B7401F075820122E7
:0508910090E68BE4F08D
:0E08960090E6A0E0FA20E1F890E740E0FA607A
:0608A40005BA011D8012DF
:0C08AA0090E741E0FA90E742E0F56A8A2E
:0608B600821212308009DD
:0908BC0090E741E0F582121240C0
:0408C5007582012215
:0408C9007582002212
:0A08CD0090E6B8E0FABA4002800F8E
:0308D700BAC06C38
:0C08DA0090E6A0E0FA20E1F8758201220F
:0508E60090E68BE4F038
:0E08EB0090E6A0E0FA20E1F890E740E0FABACB
:0408F9000102802454
:0508FD00BA0202802692
:05090200BA0302800FA2
:05090700BA0402802388
:05090C00BA090280237E
:05091100BA102A80234A
:0B09160090E6827441F075870180219B
:0709210043B580D2B7801A34
:0709280043B580C2B7801344
:05092F001210FC800E17
:05093400120FB980095B
:05093900120FBF800455
:04093E00758200229C
:040942007582012297
:040946007582002294
:0B094A0090E6B8E0FABA40030209F79B
:05095500BAC00280039E
:03095A00020A0886
:0D095D0090E6A0E0FA20E1F890E601E090BD
:0E096A00E740F090E741E5AAF090E612E09039
:0E097800E742F090E6A3E090E743F090E6A798
:0E098600E090E744F090E6ABE090E745F0909B
:0E099400E6ACE090E746F090E690E090E74792
:0E09A200F090E691E090E748F090E614E090C7
:0E09B000E749F090E6A5E090E74AF090E6A94E
:0E09BE00E090E74BF090E6AFE090E74CF09051
:0E09CC00E6B0E090E74DF090E698E090E74E40
:0E09DA00F090E699E0FA90E74FF090E68AE49C
:0E09E800F00000000090E68B7410F0758201A4
:0109F60022DE
:0509F70090E68BE4F026
:0C09FC0090E6A0E0FA20E1F875820122EC
:040A080075820022D1
:0A0A0C0090E6B8E0FABA4002801E3E
:030A1600BAC03B28
:0E0A190090E6A0E0FA20E1F890E68AE4F00012
:0C0A270000000090E68BE518F0758201DD
:010A330022A0
:050A340090E68BE4F0E8
:0A0A390090E6A0E0FA20E1F885182D
:030A4300568519BC
:050A46005785168285B2
:090A4B00178312141775820122B1
:040A54007582002285
:0A0A580090E6B8E0FABA40028036DA
:030A6200BAC044D3
:0A0A650090E6A0E0FA20E1F8756ABF
:030A6F0086756B1E
:050A72001C756C80758D
:0A0A77006D03E4F56E90E74075F0A2
:0E0A81000012178F90E68AE4F000000000904B
:090A8F00E68BE518F075820122E6
:050A980090E68BE4F084
:0C0A9D0090E6A0E0FA20E1F8758201224A
:040AA9007582002230
:040AAD00758200222C
:040AB1007582002228
:0A0AB500E582FA7014AA6AAB6BAC7C
:0C0ABF006C8A828B838CF0E4121BDC75C7
:030ACB0082012283
:040ACE00758200220B
:080AD200E582FA6003020B4EFD
:0C0ADA00E56A707090E6837402F0E0FAA8
:0E0AE60090E68374204AF090E6837416F0E0E8
:0E0AF400FA90E68374204AF090E6047480F0D5
:0E0B02000000000090E6047402F00000000005
:0E0B100090E604E4F00000000090E69174808E
:0E0B1E00F00000000090E6917480F0000000EE
:0E0B2C000090E6047480F00000000090E604E3
:0E0B3A007486F00000000090E604E4F0000075
:060B48000000758201228D
:040B4E00758200228A
:040B52007582012285
:090B5600AA82BA01047A018002AE
:020B5F007A001A
:030B61008A822263
:0C0B6400C0E0C082C083D2015391EF902A
:0C0B7000E65D7401F0D083D082D0E0324A
:0E0B7C00C0E0C082C083C0D075D008903C0895
:0E0B8A00E02401F0A3E03400F0903C08E0FA13
:0C0B9800A3E0FBBA400CBB1F09B20390A5
:060BA4003C08E4F0A3F0A0
:0E0BAA005391EF90E65D7402F0D0D0D083D06E
:040BB80082D0E032D5
:0C0BBC00C021C0E0C0F0C082C083C002B5
:0E0BC800C003C004C005C006C007C000C001C5
:0E0BD600C0D075D000758200121ADD5391EF69
:0E0BE40090E65D7410F0D0D0D001D000D007A4
:0E0BF200D006D005D004D003D002D083D0822C
:070C0000D0F0D0E0D021325A
:0C0C0700C021C0E0C0F0C082C083C00269
:0E0C1300C003C004C005C006C007C000C00179
:0E0C2100C0D075D000758201121ADD5391EF1C
:0E0C2F0090E65D7420F0D0D0D001D000D00748
:0E0C3D00D006D005D004D003D002D083D082E0
:070C4B00D0F0D0E0D021320F
:050C5200109002800279
:020C5700800219
:020C5900D29037
:010C5B003266
:031C860001040353
:011C8900005A
:011C8A000059
:011C8B00A1B7
:011C8C00A1B6
:011C8D00A1B5
:021C8E001071D3
:021C9000000052
:0E3E000012010002FFFFFF404324DC0001001E
:043E0E0001020301A9
:0A3E12000A060002FFFFFF40010056
:093E1C000902200001010080FAF6
:0E3E25000904000002FFFFFF00070502020073
:093E3300020007058602000200EE
:093E3C000902200001010080FAD6
:0E3E45000904000002FFFFFF00070502024013
:093E530000000705860240000092
:043E5C00040309044E
:0E3E60003203610065007300730065006E00A0
:0E3E6E007400200054006500630068006E00C0
:0E3E7C006F006C006F006700790020004C00A2
:083E8A00740064002E0020000A
:0E3E9200100361006500730032003200300042
:023EA000200000
:0C3EA2000C033000300030003000300015
:023EAE00000012
:010C5C003265
:010C5D003264
:010C5E003263
:010C5F003262
:070C6000AA82E5272522F519
:040C67002CE528351B
:040C6B0023F52D90B0
:0A0C6F003BFFE4F0EA2AFA752E02BA
:0B0C7900903BFFE0FE6004758200224B
:0E0C840090E678E04480F090E678E0FE30E202
:0D0C92000C90000AC002121C0DD00280DA86
:050C9F0090E679EAF087
:0E0CA40090E678E0FE20E007903BFFE0FE6067
:010CB200F150
:0B0CB300903BFFE0FE60047582002211
:0E0CBE0090E678E0FE20E2B390E678E0FE20BB
:0A0CCC00E13690E678E0FE4440F0C7
:0E0CD60090E678E0FE30E607903BFFE0FE601F
:010CE400F11E
:0B0CE500903BFFE0FE600475820022DF
:070CF000D52E0475820022DD
:0D0CF70090000AC002121C0DD002020C7900
:040D04007E007F00EE
:0A0D0800C3EE952CEF952D40030279
:020D12000DA52D
:0A0D1400C3EE9522EF95235016EE72
:080D1E002524F8EF3525F9AD9D
:0C0D260026888289838DF0121C65FD80F8
:010D32001DA3
:0A0D3300EEC39522F8EF9523F9E8CE
:080D3D002529F8E9352AF9AB7C
:0B0D45002B888289838BF0121C65FD57
:0A0D500090E679EDF00EBE00010FF1
:0E0D5A0090E678E0FB20E007903BFFE0FB60B6
:010D6800F199
:0B0D6900903BFFE0FB6004758200225D
:0B0D740090E678E0FB30E203020C790F
:0B0D7F0090E678E0FB30E103020D0875
:080D8A0090E678E0FA4440F025
:0E0D920090E678E0FA30E607903BFFE0FA606A
:010DA000F161
:040DA1007582002235
:080DA50090E678E0FA4440F00A
:0E0DAD0090E678E0FA30E607903BFFE0FA604F
:010DBB00F146
:0B0DBC00903BFFE0FA6004758200220B
:040DC700758201220E
:0E0DCB00AA82903BFFE4F0EA2AFA4302017488
:0A0DD90001B52F08E4B530047401E1
:020DE30080018D
:010DE500E429
:010DE600FB11
:0B0DE700903BFFE0FC600475820022DE
:0E0DF2007C007D0090E678E04480F090E6788A
:0D0E0000E0FE30E21090000AC002C00312B4
:080E0D001C0DD003D00280D2BD
:050E150090E679EAF00F
:0E0E1A0090E678E0FE20E007903BFFE0FE60EF
:010E2800F1D8
:0B0E2900903BFFE0FE60047582002299
:0E0E340090E678E0FE20E2AB90E678E0FE204B
:0A0E4200E11B90E678E0FE4440F06A
:0E0E4C0090E678E0FE30E607903BFFE0FE60A7
:010E5A00F1A6
:040E5B00758200227A
:0B0E5F00EB600890E678E0FE4420F015
:090E6A0090E679E0E4F534F53579
:0A0E730074012534F8E43535F9C3A5
:080E7D00E8952FE9953050695A
:0E0E850090E678E0F820E007903BFFE0F86090
:010E9300F16D
:0B0E9400903BFFE0F860047582002234
:0B0E9F0090E678E0F830E203020DE777
:0A0EAA0074022534F8E43535F9E848
:0A0EB400B52F0CE9B5300890E67880
:050EBE00E0F84420F003
:050EC300A834A935056B
:060EC80034E4B53402051C
:010ECE0035EE
:060ECF00AC34AD35E8254E
:070ED50031F8E93532F9AEF6
:0C0EDC003390E679E0FF888289838EF075
:060EE800121BDC020E7378
:0E0EEE0090E678E0FE20E007903BFFE0FE601B
:010EFC00F104
:0B0EFD00903BFFE0FE600475820022C5
:0B0F080090E678E0FE30E203020DE707
:0C0F130090E678E04440F0EC2531FCED65
:0A0F1F003532FDAA3390E679E0FBBD
:090F29008C828D838AF0121BDC1E
:0E0F320090E678E0FA30E607903BFFE0FA60C8
:010F4000F1BF
:0B0F4100903BFFE0FA60047582002284
:040F4C007582012287
:040F50007582012283
:0E0F5400AA827B0090E678E0FC30E4067B0188
:040F6200AC378C3DDF
:0A0F66008B040BEC243DF8AC36A61A
:070F7000048B2275230075BC
:030F7700243D75A1
:070F7A002500752640E4F597
:040F810027F528F533
:040F850029F52AF52B
:0C0F89002B8A82C002120C60E582D002AC
:050F95007003F582224B
:040F9A0085382F85E2
:030F9E0039308562
:030FA1003A31855D
:030FA4003B328558
:050FA7003C338A8212B8
:090FAC000DCBE5827003F58222F1
:040FB500758201221E
:06021A00753F0175400074
:060FB90043B201D28022C8
:060FBF0043B201C28022D2
:0E0FC50075B20075B3EF75B58DC2B7C2B0C27C
:0B0FD30091D295D293D292D297D29681
:050FDE0020B5FDD2B0BA
:0E0FE30030B5FD9000C8121C0D30B1047A012B
:020FF10080027C
:020FF3007A0082
:0E0FF50075B20075B30075B581D2B0C2B78A6F
:02100300822247
:0E10050075B5C5C2B7C2B075B2FF75B3FFD2E4
:0E101300B5D294D2B2C2B6D291D295C2939009
:0510210001F4121C0D9A
:0510260020B5FDD2B071
:0E102B0030B5FDC294C2B29001F4121C0D202B
:06103900B1047AAD800253
:02103F007AB382
:031041008A82227E
:0810440085824185834285F09D
:04104C0043F5441212
:091050001005AE82BEAD02800362
:031059000210F989
:05105C00E5414542459D
:0A106100434544607AE5AA20E0F15F
:0E106B0090E690E0F87F0090E691E0F97A00C0
:0A1079004FF545EA48F5467A007B82
:01108300006C
:0A108400C3EA9545EB954650198A22
:0E108E008274F02BF583E0F580C2B6D290D2CA
:0A109C00B6C2900ABA00E10B80DE34
:0810A600AA45AB46E4FCFDE5A0
:0610AE0041C39AF541E583
:0510B400429BF542E53E
:0510B900439CF543E536
:0A10BE00449DF544A2B5B3E433FAF3
:0E10C800A2B1B3E433FB5A6006D2907582B039
:0110D60022F7
:0910D70090E6917480F002105CB7
:0E10E00030B11475B200120FB9D2B2D29475AD
:0910EE00B30075B5817EAB8002F0
:0210F7007EB2C7
:0310F9008E8222C2
:0E10FC0075B20075B3FF75B58DC2B7D2B0D214
:0A110A00B2D2B3903C0374A8F022A7
:0D1114001210FC903C03E0FABAA80280041F
:0411210075820122B0
:0B112500903C03E0FABAAB0302122C6E
:0D113000E5AA20E0F090E690E0FB7A009048
:0C113D00E691E0FC7D004AF547ED4BF523
:0B1149004890F000E0FABA600280134A
:05115400BA61028038C1
:05115900BA6202805B98
:06115E00BAAF03021216F5
:0311640002122153
:0E116700C2B3C2B27590D7D2B2759055C2B263
:0E117500D2B290F800E580F0D2B390E698E494
:0E118300F00000000090E6997401F0021223C3
:06119100C2B37A017B00ED
:0A119700C3EA9547EB95485015C2D6
:0E11A100B28A8274F02BF583E0F590D2B20A88
:0611AF00BA00E50B80E22E
:0411B500D2B3806AC7
:0611B900C2B37A017B00C5
:0A11BF00C3EA9547EB95485015C2AE
:0E11C900B28A8274F02BF583E0F590D2B20A60
:0611D700BA00E50B80E206
:0411DD007A007B0019
:0E11E100C3EA9408EB94015018C2B27590AAAC
:0E11EF00D2B28A8274F82BF583E580F00ABA3A
:0511FD0000E20B80DFA1
:0D120200D2B390E6987401F0000000009057
:07120F00E6997408F0800D60
:0B121600120FC5903C0374ABF0800287
:02122100D29069
:0912230090E6917480F00211259F
:04122C0075820022A5
:0C123000AA8253B59353B2F5EA42B5E52B
:04123C006A42B2222E
:0E124000E582FA1392B2EAA2E192B3EAA2E2C8
:0E124E0092B5EAA2E392B6EAA2E49281EAA285
:04125C00E592832272
:07126000AA82BAA202800677
:05126700BAA302804063
:01126C00225F
:0E126D0090E670E4F00000000090E60174C00E
:0E127B00F00000000090E6917480F00000008A
:0E1289000090E6917480F090E699E4F0000089
:0E129700000090E699E4F075B20075B30075A2
:0712A500B581D2B0C2B722EF
:0E12AC0075B581C2B790E6707440F000000086
:0E12BA000090E6017443F00000000075B5815D
:0D12C800C2B790E6047480F00000000090B2
:0E12D500E6047482F00000000090E6047486C7
:0E12E300F00000000090E604E4F000000000BF
:0E12F10090E618E4F00000000090E61A744841
:0E12FF00F00000000090E6247402F0000000F1
:0E130D000090E625E4F00000000090E6047475
:0E131B0080F00000000090E6047406F0000070
:0E132900000090E604E4F00000000000000068
:0E1337000090E619E0FA54FEF000000000906D
:0E134500E61BE0FA54FEF00000000090E609FE
:0E135300743DF090E60274E0F000000000909F
:0E136100E6037408F00000000075B581C2B705
:01136F00225B
:06137000858250AB4DAC7C
:041376004EAD4FE544
:05137A004B2BF553E5CB
:05137F004C3CF5548D0B
:0413840055AA4A8A92
:0613880051AA497E008A13
:01138E00520C
:09138F00C3EB9553EC9554ED9568
:061398005540030214138E
:0A139E00E553C39BFAE5549CFEC31F
:0E13A80074409A74808EF063F08095F05004CB
:0413B6007A40800BEE
:0A13BA00E553C39BFEE5549CFF8E33
:0113C4000226
:0413C50075245175C5
:0613C90025007526408A94
:0513CF002775280075E0
:0613D4002202E4F5238B68
:0413DA00298C2A8DA3
:0A13DE002B855082C002C003C0043A
:0E13E800C005120C60E582D005D004D003D001
:0613F600027003F58222E3
:0A13FC008A067F00EE2549F549EF4F
:0A140600354AF54AEA2BFBE43CFCF2
:0314100002138F35
:0414130075820122BB
:0B141700AA82C2B38A821214617A001C
:0A1422008A037C00C3EB9556EC959D
:0C142C0057502FEA2440FBE434E7FCEAB0
:0E1438002440F582E434E7F583E0F582C0023B
:0E144600C003C004121461AD82D004D003D0E4
:0A145400028B828C83EDF00A80C445
:03145E00D2B322E4
:0E146100858290C2B2D2B20000008580822245
:04146F00753A5875FD
:061473003B00753C4075D2
:0614790036F875373D75E1
:09147F003801E4F53975825112BF
:091488000F54E5827003F5822285
:0414910085588222D6
:011495003224
:011496003223
:011497003222
:0C149800AA82903C00E4F0EA2AFA7B02F1
:0B14A400903C00E0FC60047582002218
:0E14AF0090E678E04480F090E678E0FC30E2D1
:0E14BD001090000AC002C003121C0DD003D014
:0314CB000280D6C6
:0514CE0090E679EAF050
:0E14D30090E678E0FC20E007903C00E0FC6032
:0114E100F119
:0B14E200903C00E0FC600475820022DA
:0E14ED0090E678E0FC20E2AF90E678E0FC208C
:0E14FB00E129C002C0031215C9E582D003D05A
:06150900027003F58222CE
:06150F00DB0475820022DE
:0E15150090000AC002C003121C0DD003D002C9
:031523000214A40B
:04152600855B6A85F2
:03152A005C6B8572
:03152D005D6C856D
:0A1530005982855A83C002C00312DD
:0D153A00154BE582D003D00270030214A40B
:041547007582012286
:0D154B00AA82AB83903C00E4F07C007D00A0
:0C155800C3EC9AED9B5066EC256AFEED9A
:0A156400356BFFA86C8E828F838820
:0E156E00F0121C65FE90E679F00CBC00010D39
:0E157C0090E678E0FE20E007903C00E0FE6084
:01158A00F16F
:0B158B00903C00E0FE6004758200222E
:0C15960090E678E0FE30E204758200224E
:0E15A20090E678E0FE20E1AE90E678E0FA44B4
:0215B00040F009
:0E15B20090E678E0FA30E607903C00E0FA6040
:0115C000F139
:0415C100758200220D
:0415C5007582012208
:0815C90090E678E0FA4440F0DE
:0E15D10090E678E0FA30E607903C00E0FA6021
:0115DF00F11A
:0B15E000903C00E0FA600475820022DD
:0415EB0075820122E2
:0D15EF00AA82903C00E4F0EA2AFA430201CF
:0B15FC00903C00E0FB600475820122BF
:0E16070090E678E04480F090E678E0FB30E278
:0D1615000C90000AC002121C0DD00280DAF9
:0516220090E679EAF0FA
:0E16270090E678E0FB20E007903C00E0FB60DE
:01163500F1C3
:0B163600903C00E0FB60047582012284
:0E16410090E678E0FB20E2B390E678E0FA2035
:0A164F00E11B90E678E0FA4440F059
:0E16590090E678E0FA30E607903C00E0FA6098
:01166700F191
:041668007582002265
:04166C0085606A85A6
:03167000616B8526
:03167300626C8521
:061676005E82855F830225
:02167C00167ED8
:0E167E00AA82AB83BA0138BB003590E678E053
:08168C00FC4420F090E679E037
:0E16940090E678E0FC20E007903C00E0FC606F
:0116A200F156
:0B16A300903C00E0FC60047582012216
:0B16AE0090E678E0FC20E20302174405
:0416B9007582002214
:0816BD00E4BA0204BB000104C1
:0C16C500FCC374019AE49BE433FAAB6AA6
:0416D100AD6BAE6CE3
:0316D500EA604682
:0E16D80090E678E0FF20E007903C00E0FF6025
:0116E600F112
:0B16E700903C00E0FF600475820022D0
:0C16F20090E678E0FF30E20475820022F0
:0B16FE00EC600890E678E0FF4420F06C
:0E17090090E679E0FF8B828D838EF0121BDC60
:07171700A3AB82AD8380B794
:0E171E0090E678E0FA20E007903C00E0FA60E8
:01172C00F1CB
:0B172D00903C00E0FA6004758200228E
:0C17380090E678E0FA30E20475820022AE
:041744007582012287
:09174800AA82AB831ABAFF011B4F
:09175100EA256AFAEB356BFBACEA
:0C175A006C90E678E04440F090E679E006
:0A176600FD8A828B838CF0121BDCDD
:0E17700090E678E0FA30E607903C00E0FA6080
:01177E00F179
:0B177F00903C00E0FA6004758201223B
:04178A007582012241
:01178E003228
:0601EA00E478FFF6D8FDE9
:0A178F00AA82AB83ACF08A6F8B7066
:051799008C71A86AA993
:04179E006BAD6C883B
:0417A2007289738D48
:0417A60074A86DA90D
:0117AA006ED0
:0917AB008805890618B8FF011930
:0A17B400ED4E602585728285738377
:0A17BE008574F0121C65FDA38582FE
:0A17C800728583738A828B838CF094
:0B17D200ED121BDCA3AA82AB8380CECB
:0717DD00856F828570838592
:0317E40071F0227F
:0801C8007909E94400601B7A8B
:0501D00001901C89787C
:0301D5000175921F
:0A01D8003CE493F2A308B80002050E
:0801E20092D9F4DAF27592FFE4
:0702200075640075650075AF
:03022700663C75BD
:03022A00673E75B7
:03022D00681C75D5
:02023000693E25
:0C17E70090E6B9E0FA24F450030218E781
:0717F300EA2A2A9017FA739D
:0717FA0002181E0218330261
:0618010018E7021848027E
:0618070018E70218E702D9
:06180D00185D0218E7025D
:06181300186302187B02BD
:0518190018950218C93A
:0A181E0012195BE58260030218FC5A
:0B18280090E6A0E0FA4401F00218FC7A
:0A1833001219E7E58260030218FCB9
:0B183D0090E6A0E0FA4401F00218FC65
:0A184800121A55E58260030218FC35
:0B18520090E6A0E0FA4401F00218FC50
:06185D00121B080218FC3A
:0E186300120B52AA8290E740EAF090E68AE467
:0A187100F090E68B7401F00218FC01
:0E187B0090E6BAE0F582120B56E58260030299
:0218890018FC49
:0A188B0090E6A0E0FA4401F0806747
:0918950090E6BCE0FA756A637587
:08189E006B00756C408A821298
:0E18A6000AB5E582700A90E6A0E0FA4401F06F
:0218B40080466C
:0C18B60090E740E563F090E68AE4F090D3
:0718C200E68B7401F0803396
:0C18C90090E6BCE0FA90E6BAE0F56A8A0E
:0E18D50082120AD2E582701F90E6A0E0FA446B
:0418E30001F080157B
:0E18E70090E6B9E0F582120468E58270089080
:0718F500E6A0E0FA4401F057
:0818FC0090E6A0E04480F02218
:0E190400AA82747F5AFB24F74049EB2B2B90EC
:0319120019157331
:07191500021930021934022F
:06191C00194702195702F1
:06192200194B02195702E7
:06192800194F02195702DD
:02192E0019534B
:0419300090E6A0227B
:0A193400EA30E7067AA27BE68004A1
:04193E007AA17BE629
:051942008A828B832264
:0419470090E6A32261
:04194B0090E6A4225C
:04194F0090E6A52257
:0419530090E6A62252
:0419570090000022DA
:0A195B0090E6B8E0FABA800280229C
:05196500BA81028008B8
:05196A00BA8202803783
:03196F000219DF7B
:0E19720090E740E4F090E741F090E68AF090B4
:07198000E68B7402F0805CAD
:0A198700E56525E0FAE564420290F0
:0E199100E740EAF090E741E4F090E68AF0903B
:07199F00E68B7402F0803DAD
:0E19A60090E6BCE0F582121904AA82AB83EA37
:0619B4004B7003F58222D6
:0D19BA008A828B83E0FA30E0047A0180021B
:0219C7007A00A4
:0E19C90090E740EAF090E741E4F090E68AF003
:0819D70090E68B7402F080041D
:0419DF0075820022EB
:0419E30075820122E6
:0C19E70090E6B8E0FA6005BA02578011E3
:0C19F30090E6BAE0FABA010575650080C4
:0119FF005196
:041A000075820022C9
:0D1A040090E6BAE0703A90E6BCE0F5821280
:0E1A11001904AA82AB83E0FC5304FE8A828B88
:0E1A1F0083ECF090E6BCE0FA53020F90E6BCB8
:0E1A2D00E05480C423541FFB90E6832AF090FF
:091A3B00E683E0FA4420F0800D7E
:041A44007582002285
:091A480090E6B9E0F582020468A1
:041A51007582012277
:0C1A550090E6B8E0FA6008BA0202801FB8
:031A6100021AD096
:0B1A640090E6BAE0FABA0203021AD9B9
:0C1A6F0090E6BAE0FABA01057565018046
:011A7B005D0D
:041A7C00758200224D
:0D1A800090E6BAE0704690E6BCE0F58212F8
:0D1A8D001904AA82AB83EA4B7003F5822294
:0E1A9A008A828B83E0FC4304018A828B83ECFA
:0E1AA800F090E6BCE0FA53020F90E6BCE0546A
:0D1AB60080C423541FFB90E683EB2AF090C0
:091AC300E683E0FA4420F0800DF6
:041ACC0075820022FD
:091AD00090E6B9E0F58202046819
:041AD90075820122EF
:091ADD00AA82D20410AF02C20477
:071AE600EA600E75661C7535
:031AED00673E75DC
:031AF000683C75DA
:041AF300693E800CBC
:041AF70075663C755F
:031AFB00673E75CE
:031AFE00681C75EC
:021B0100693E3B
:051B0300A20492AF22D4
:0A1B080090E6BBE0FABA0102801972
:051B1200BA0202802769
:051B1700BA030280305A
:061B1C00BA0603021BB033
:061B2200BA0703021BC319
:031B2800021BD1CC
:0A1B2B007A007B3E90E6B3EBF07AFF
:091B3500007B3E90E6B4EAF022C8
:091B3E0090E6B3E567F0AA669099
:051B4700E6B4EAF02203
:0A1B4C007A5C7B3E7C8090E6BAE0F4
:031B5600FD7E0011
:091B59008E070EEDB5070280367F
:0E1B62008A828B838CF0121C652AFAE43BFB0E
:0E1B700074012AFFE43BF88C018F8288838980
:0A1B7E00F0121C65FFBF0302800691
:061B88007A007B007C00E6
:0A1B8E00EA4B4C6005C3ED9E50C108
:0E1B9800EA4B4C600B90E6B3EBF090E6B4EA3B
:021BA600F0222B
:081BA80090E6A0E04401F022E8
:0A1BB0007A127B3E90E6B3EBF07A68
:091BBA00127B3E90E6B4EAF02231
:091BC30090E6B3E569F0AA689010
:051BCC00E6B4EAF0227E
:081BD10090E6A0E04401F022BF
:011BD90032D9
:011BDA0032D8
:011BDB0032D7
:0E1BDC0020F71030F6118883A88220F507F656
:051BEA00A883758300D3
:011BEF0022D3
:031BF000F280F789
:021BF300F022DE
:011BF50032BD
:011BF60032BC
:011BF70032BB
:011BF80032BA
:03004300023F0079
:093F0000020B6400020B7C0002BC
:083F09000C5F00021BD900024D
:083F11000BBC00020C070002CA
:083F19000C5C00021C02000216
:083F21001C0300021C04000255
:083F29001C0500021C08000247
:083F31001BDB00021BF500027E
:083F39001BF600021BF8000258
:083F4100149600021C020002AC
:083F49001C8100020C5D000266
:083F51000C5E00021495000251
:083F590014970002178E00020C
:083F61001C6400021C020002B6
:083F69001C0200021C02000210
:083F71001C0100021C06000205
:083F79001C0900021C0B0002F0
:083F81001C0700021C0A0002EB
:083F89001C0C00021C63000285
:083F91001BF900021BFB0002FA
:083F99001BFD00021BFF0002EA
:083FA1001BFA00021BFC0002E8
:083FA9001BFE00021C000002D7
:073FB1001BF700021BDA0000
:011BF90032B9
:0801F0007800E84400600A7980
:0301F800F7759206
:0601FB003BE4F309D8FC0F
:08020100780AE84400600C7962
:0B02090001903BF7E4F0A3D8FCD9FA09
:011BFA0032B8
:011BFB0032B7
:011BFC0032B6
:011BFD0032B5
:011BFE0032B4
:011BFF0032B3
:011C000032B1
:011C010032B0
:011C020032AF
:011C030032AE
:011C040032AD
:011C050032AC
:011C060032AB
:011C070032AA
:011C080032A9
:011C090032A8
:011C0A0032A7
:011C0B0032A6
:011C0C0032A5
:0E1C0D00AA82AB8390E600E05418C423541F53
:041C1B00FCB4010014
:0B1C1F00E433FC60067CB17D00801CFB
:0E1C2A0090E600E05418C423541FFEBE0106CD
:061C38007E617F018004C3
:041C3E007EC27F02E1
:041C42008E048F0578
:041C46008C6A8D6BAC
:081C4A00156A74FFB56A02156A
:011C52006B26
:0A1C5300E56A456B70F11ABAFF0153
:011C5D001B6B
:051C5E00EA4B70E422D6
:011C6300324E
:011C6400324D
:0301BB00758174D7
:0A01BE00121C82E58260030201B604
:0E1C650020F71430F6148883A88220F507E6D5
:061C7300A8837583002226
:031C7900E280F70F
:031C7C00E49322CC
:021C7F00E02261
:011C81003230
:041C82007582002245
:00000001FF
